{
  "contractName": "Inbox",
  "abi": [
    {
      "constant": true,
      "inputs": [
        {
          "name": "",
          "type": "uint256"
        }
      ],
      "name": "instructorAccts",
      "outputs": [
        {
          "name": "",
          "type": "address"
        }
      ],
      "payable": false,
      "stateMutability": "view",
      "type": "function"
    },
    {
      "constant": true,
      "inputs": [],
      "name": "message",
      "outputs": [
        {
          "name": "",
          "type": "string"
        }
      ],
      "payable": false,
      "stateMutability": "view",
      "type": "function"
    },
    {
      "inputs": [],
      "payable": false,
      "stateMutability": "nonpayable",
      "type": "constructor"
    },
    {
      "anonymous": false,
      "inputs": [
        {
          "indexed": false,
          "name": "question_id",
          "type": "uint256"
        },
        {
          "indexed": false,
          "name": "count",
          "type": "uint256"
        }
      ],
      "name": "TestValue",
      "type": "event"
    },
    {
      "constant": false,
      "inputs": [
        {
          "name": "_question",
          "type": "uint248"
        }
      ],
      "name": "updateVotes",
      "outputs": [],
      "payable": false,
      "stateMutability": "nonpayable",
      "type": "function"
    },
    {
      "constant": true,
      "inputs": [
        {
          "name": "question",
          "type": "uint248"
        }
      ],
      "name": "getVotes",
      "outputs": [
        {
          "name": "",
          "type": "uint256"
        }
      ],
      "payable": false,
      "stateMutability": "view",
      "type": "function"
    },
    {
      "constant": false,
      "inputs": [
        {
          "name": "_question",
          "type": "string"
        }
      ],
      "name": "addQuestion",
      "outputs": [],
      "payable": false,
      "stateMutability": "nonpayable",
      "type": "function"
    },
    {
      "constant": true,
      "inputs": [
        {
          "name": "id",
          "type": "uint256"
        }
      ],
      "name": "readQuestions",
      "outputs": [
        {
          "name": "",
          "type": "string"
        }
      ],
      "payable": false,
      "stateMutability": "view",
      "type": "function"
    }
  ],
  "bytecode": "0x608060405234801561001057600080fd5b50610863806100206000396000f300608060405260043610610078576000357c0100000000000000000000000000000000000000000000000000000000900463ffffffff1680638eb5234c1461007d57806396a270f3146100ea578063aa56118714610190578063e21f37ce146101f2578063f129dbd914610282578063f38e656a146102eb575b600080fd5b34801561008957600080fd5b506100a860048036038101908080359060200190929190505050610339565b604051808273ffffffffffffffffffffffffffffffffffffffff1673ffffffffffffffffffffffffffffffffffffffff16815260200191505060405180910390f35b3480156100f657600080fd5b5061011560048036038101908080359060200190929190505050610377565b6040518080602001828103825283818151815260200191508051906020019080838360005b8381101561015557808201518184015260208101905061013a565b50505050905090810190601f1680156101825780820380516001836020036101000a031916815260200191505b509250505060405180910390f35b34801561019c57600080fd5b506101dc60048036038101908080357effffffffffffffffffffffffffffffffffffffffffffffffffffffffffffff169060200190929190505050610464565b6040518082815260200191505060405180910390f35b3480156101fe57600080fd5b506102076104e8565b6040518080602001828103825283818151815260200191508051906020019080838360005b8381101561024757808201518184015260208101905061022c565b50505050905090810190601f1680156102745780820380516001836020036101000a031916815260200191505b509250505060405180910390f35b34801561028e57600080fd5b506102e9600480360381019080803590602001908201803590602001908080601f0160208091040260200160405190810160405280939291908181526020018383808284378201915050505050509192919290505050610586565b005b3480156102f757600080fd5b5061033760048036038101908080357effffffffffffffffffffffffffffffffffffffffffffffffffffffffffffff169060200190929190505050610614565b005b60038181548110151561034857fe5b906000526020600020016000915054906101000a900473ffffffffffffffffffffffffffffffffffffffff1681565b6060610381610764565b60028381548110151561039057fe5b9060005260206000209060020201604080519081016040529081600082018054600181600116156101000203166002900480601f0160208091040260200160405190810160405280929190818152602001828054600181600116156101000203166002900480156104425780601f1061041757610100808354040283529160200191610442565b820191906000526020600020905b81548152906001019060200180831161042557829003601f168201915b5050505050815260200160018201548152505090508060000151915050919050565b600061046e61077e565b60016000847effffffffffffffffffffffffffffffffffffffffffffffffffffffffffffff167effffffffffffffffffffffffffffffffffffffffffffffffffffffffffffff1681526020019081526020016000206020604051908101604052908160008201548152505090508060000151915050919050565b60008054600181600116156101000203166002900480601f01602080910402602001604051908101604052809291908181526020018280546001816001161561010002031660029004801561057e5780601f106105535761010080835404028352916020019161057e565b820191906000526020600020905b81548152906001019060200180831161056157829003601f168201915b505050505081565b600080610591610764565b60028054905092506001830191506040805190810160405280858152602001838152509050600281908060018154018082558091505090600182039060005260206000209060020201600090919290919091506000820151816000019080519060200190610600929190610792565b506020820151816001015550505050505050565b61061c61077e565b60016000837effffffffffffffffffffffffffffffffffffffffffffffffffffffffffffff167effffffffffffffffffffffffffffffffffffffffffffffffffffffffffffff168152602001908152602001600020602060405190810160405290816000820154815250509050806000018051809190600101815250508060016000847effffffffffffffffffffffffffffffffffffffffffffffffffffffffffffff167effffffffffffffffffffffffffffffffffffffffffffffffffffffffffffff168152602001908152602001600020600082015181600001559050507ff554a9310b16191771173557142d99fa9a11649978206e55e561ab0f4448298982826000015160405180837effffffffffffffffffffffffffffffffffffffffffffffffffffffffffffff1681526020018281526020019250505060405180910390a15050565b604080519081016040528060608152602001600081525090565b602060405190810160405280600081525090565b828054600181600116156101000203166002900490600052602060002090601f016020900481019282601f106107d357805160ff1916838001178555610801565b82800160010185558215610801579182015b828111156108005782518255916020019190600101906107e5565b5b50905061080e9190610812565b5090565b61083491905b80821115610830576000816000905550600101610818565b5090565b905600a165627a7a72305820763aeede4e2b3d2e9b71515e672aa1baec0663a909710df314c918debe79620f0029",
  "source": "pragma solidity ^0.4.17;\n\ncontract Inbox{\n    \n    string public message;\n    struct Vote{\n        uint count;\n    }\n    struct Question{\n        string question;\n        uint question_id;\n    }\n    event TestValue(uint question_id,uint count);\n    mapping (uint248 => Vote) votes;\n    Question []questions;\n    address[] public instructorAccts;\n     constructor() public{\n     \n        \n    }\n    function updateVotes(uint248 _question) public{\n        Vote memory vote;\n        vote=votes[_question];\n        vote.count++;\n        votes[_question]=vote;\n        emit TestValue(_question,vote.count);\n    }\n    function getVotes(uint248 question) view public returns (uint) {\n        Vote memory vote;\n        vote=votes[question];\n        return vote.count;\n    }\n    function addQuestion(string _question) public{\n        uint length;\n        length=questions.length;\n        uint new_length;\n        new_length=length+1;\n        Question memory question;\n        question=Question(_question,new_length);\n        questions.push(question);\n        \n    }\n    function readQuestions(uint id) view public returns (string){\n        Question memory question;\n        question=questions[id];\n        return question.question;\n    }\n    \n    \n    \n}",
  "sourcePath": "C:\\code\\ethereumevents\\contracts\\Inbox.sol",
  "compiler": {
    "name": "solc",
    "version": "0.4.24+commit.e67f0147.Emscripten.clang"
  },
  "schemaVersion": "2.0.1",
  "updatedAt": "2018-08-16T14:47:30.236Z"
}